{
  "contractName": "BlockchainCV",
  "abi": [
    {
      "constant": true,
      "inputs": [],
      "name": "elementsAreSet",
      "outputs": [
        {
          "name": "",
          "type": "bool"
        }
      ],
      "payable": false,
      "stateMutability": "view",
      "type": "function"
    },
    {
      "constant": false,
      "inputs": [
        {
          "name": "newCV",
          "type": "address"
        },
        {
          "name": "newWebPage",
          "type": "string"
        },
        {
          "name": "newDescription",
          "type": "string"
        },
        {
          "name": "newTitle",
          "type": "string"
        },
        {
          "name": "newAuthor",
          "type": "string"
        },
        {
          "name": "newAuthorEmailAddress",
          "type": "string"
        }
      ],
      "name": "addCV",
      "outputs": [],
      "payable": false,
      "stateMutability": "nonpayable",
      "type": "function"
    },
    {
      "constant": true,
      "inputs": [],
      "name": "getCVAddress",
      "outputs": [
        {
          "name": "",
          "type": "address"
        },
        {
          "name": "",
          "type": "uint256"
        }
      ],
      "payable": false,
      "stateMutability": "view",
      "type": "function"
    },
    {
      "constant": true,
      "inputs": [],
      "name": "getAddress",
      "outputs": [
        {
          "name": "",
          "type": "string"
        }
      ],
      "payable": false,
      "stateMutability": "view",
      "type": "function"
    },
    {
      "constant": true,
      "inputs": [],
      "name": "getDescription",
      "outputs": [
        {
          "name": "",
          "type": "string"
        }
      ],
      "payable": false,
      "stateMutability": "view",
      "type": "function"
    },
    {
      "constant": true,
      "inputs": [],
      "name": "getTitle",
      "outputs": [
        {
          "name": "",
          "type": "string"
        }
      ],
      "payable": false,
      "stateMutability": "view",
      "type": "function"
    },
    {
      "constant": true,
      "inputs": [],
      "name": "getAuthor",
      "outputs": [
        {
          "name": "",
          "type": "string"
        },
        {
          "name": "",
          "type": "string"
        }
      ],
      "payable": false,
      "stateMutability": "view",
      "type": "function"
    }
  ],
  "bytecode": "0x6060604052341561000f57600080fd5b610cae8061001e6000396000f300606060405260043610610083576000357c0100000000000000000000000000000000000000000000000000000000900463ffffffff1680631a0925411461008857806338cc4831146101165780633d4d9e9d146101a45780637e9aef5314610200578063a5faa1251461022d578063b4e6389714610327578063ff3c1a8f146104af575b600080fd5b341561009357600080fd5b61009b61053d565b6040518080602001828103825283818151815260200191508051906020019080838360005b838110156100db5780820151818401526020810190506100c0565b50505050905090810190601f1680156101085780820380516001836020036101000a031916815260200191505b509250505060405180910390f35b341561012157600080fd5b610129610625565b6040518080602001828103825283818151815260200191508051906020019080838360005b8381101561016957808201518184015260208101905061014e565b50505050905090810190601f1680156101965780820380516001836020036101000a031916815260200191505b509250505060405180910390f35b34156101af57600080fd5b6101b761070d565b604051808373ffffffffffffffffffffffffffffffffffffffff1673ffffffffffffffffffffffffffffffffffffffff1681526020018281526020019250505060405180910390f35b341561020b57600080fd5b610213610731565b604051808215151515815260200191505060405180910390f35b341561023857600080fd5b6102406107e5565b604051808060200180602001838103835285818151815260200191508051906020019080838360005b83811015610284578082015181840152602081019050610269565b50505050905090810190601f1680156102b15780820380516001836020036101000a031916815260200191505b50838103825284818151815260200191508051906020019080838360005b838110156102ea5780820151818401526020810190506102cf565b50505050905090810190601f1680156103175780820380516001836020036101000a031916815260200191505b5094505050505060405180910390f35b341561033257600080fd5b6104ad600480803573ffffffffffffffffffffffffffffffffffffffff1690602001909190803590602001908201803590602001908080601f0160208091040260200160405190810160405280939291908181526020018383808284378201915050505050509190803590602001908201803590602001908080601f0160208091040260200160405190810160405280939291908181526020018383808284378201915050505050509190803590602001908201803590602001908080601f0160208091040260200160405190810160405280939291908181526020018383808284378201915050505050509190803590602001908201803590602001908080601f0160208091040260200160405190810160405280939291908181526020018383808284378201915050505050509190803590602001908201803590602001908080601f016020809104026020016040519081016040528093929190818152602001838380828437820191505050505050919050506109b9565b005b34156104ba57600080fd5b6104c2610acd565b6040518080602001828103825283818151815260200191508051906020019080838360005b838110156105025780820151818401526020810190506104e7565b50505050905090810190601f16801561052f5780820380516001836020036101000a031916815260200191505b509250505060405180910390f35b610545610bb5565b600160003373ffffffffffffffffffffffffffffffffffffffff1673ffffffffffffffffffffffffffffffffffffffff1681526020019081526020016000206001018054600181600116156101000203166002900480601f01602080910402602001604051908101604052809291908181526020018280546001816001161561010002031660029004801561061b5780601f106105f05761010080835404028352916020019161061b565b820191906000526020600020905b8154815290600101906020018083116105fe57829003601f168201915b5050505050905090565b61062d610bb5565b600160003373ffffffffffffffffffffffffffffffffffffffff1673ffffffffffffffffffffffffffffffffffffffff1681526020019081526020016000206000018054600181600116156101000203166002900480601f0160208091040260200160405190810160405280929190818152602001828054600181600116156101000203166002900480156107035780601f106106d857610100808354040283529160200191610703565b820191906000526020600020905b8154815290600101906020018083116106e657829003601f168201915b5050505050905090565b600080333073ffffffffffffffffffffffffffffffffffffffff1631915091509091565b600061073b610bc9565b610743610bb5565b61074b610bb5565b61075361053d565b925060008351141561076857600093506107df565b610770610acd565b925060008351141561078557600093506107df565b61078d6107e5565b915091508192506000835114156107a757600093506107df565b8092506000835114156107bd57600093506107df565b6107c5610625565b92506000835114156107da57600093506107df565b600193505b50505090565b6107ed610bb5565b6107f5610bb5565b600160003373ffffffffffffffffffffffffffffffffffffffff1673ffffffffffffffffffffffffffffffffffffffff168152602001908152602001600020600301600160003373ffffffffffffffffffffffffffffffffffffffff1673ffffffffffffffffffffffffffffffffffffffff168152602001908152602001600020600401818054600181600116156101000203166002900480601f01602080910402602001604051908101604052809291908181526020018280546001816001161561010002031660029004801561090e5780601f106108e35761010080835404028352916020019161090e565b820191906000526020600020905b8154815290600101906020018083116108f157829003601f168201915b50505050509150808054600181600116156101000203166002900480601f0160208091040260200160405190810160405280929190818152602001828054600181600116156101000203166002900480156109aa5780601f1061097f576101008083540402835291602001916109aa565b820191906000526020600020905b81548152906001019060200180831161098d57829003601f168201915b50505050509050915091509091565b60a06040519081016040528086815260200185815260200184815260200183815260200182815250600160008873ffffffffffffffffffffffffffffffffffffffff1673ffffffffffffffffffffffffffffffffffffffff1681526020019081526020016000206000820151816000019080519060200190610a3c929190610bdd565b506020820151816001019080519060200190610a59929190610bdd565b506040820151816002019080519060200190610a76929190610bdd565b506060820151816003019080519060200190610a93929190610bdd565b506080820151816004019080519060200190610ab0929190610bdd565b509050506000808154809291906001019190505550505050505050565b610ad5610bb5565b600160003373ffffffffffffffffffffffffffffffffffffffff1673ffffffffffffffffffffffffffffffffffffffff1681526020019081526020016000206002018054600181600116156101000203166002900480601f016020809104026020016040519081016040528092919081815260200182805460018160011615610100020316600290048015610bab5780601f10610b8057610100808354040283529160200191610bab565b820191906000526020600020905b815481529060010190602001808311610b8e57829003601f168201915b5050505050905090565b602060405190810160405280600081525090565b602060405190810160405280600081525090565b828054600181600116156101000203166002900490600052602060002090601f016020900481019282601f10610c1e57805160ff1916838001178555610c4c565b82800160010185558215610c4c579182015b82811115610c4b578251825591602001919060010190610c30565b5b509050610c599190610c5d565b5090565b610c7f91905b80821115610c7b576000816000905550600101610c63565b5090565b905600a165627a7a72305820aaf62eb293540459ca6b7556102b5afa4bc90142ca6ff6bf7cc26cf8934123360029",
  "source": "pragma solidity ^0.4.15;\n\nimport \"./CVExtender.sol\";\n\ncontract BlockchainCV is CVExtender {\n    \n    struct Person {\n        string FirstName;\n        string LastName;\n    }\n    \n    struct CV {\n        string WebPage;\n        string Description;\n        string Title;\n        string Author;\n        string AuthorEmail;\n        mapping(address => Person) People;\n    }\n    \n    uint numberOfResumes;\n    mapping (address=>CV) ListOfResumes;\n\n    function addCV(address newCV, string newWebPage, string newDescription, string newTitle, string newAuthor, string newAuthorEmailAddress) public {\n        ListOfResumes[newCV] = CV(newWebPage,newDescription,newTitle,newAuthor,newAuthorEmailAddress);\n        numberOfResumes++;\n    }\n    function getCVAddress() public constant returns(address, uint) {\n        return (msg.sender, this.balance);\n    }\n    function getAddress() public constant returns(string) {\n        return  ListOfResumes[msg.sender].WebPage;\n    }\n\n    function getDescription() public constant returns(string) {\n        return ListOfResumes[msg.sender].Description;\n    }\n    function getTitle() public constant returns(string) {\n        return ListOfResumes[msg.sender].Title;\n    }\n    function getAuthor() public constant returns(string, string) {\n        return (ListOfResumes[msg.sender].Author, ListOfResumes[msg.sender].AuthorEmail);\n    }\n}\n",
  "sourcePath": "C:\\Users\\crypto\\Projects\\blockchain-cv\\contracts\\Migrations.sol",
  "compiler": {
    "name": "solc",
    "version": "0.4.19+commit.c4cbbb05.Emscripten.clang"
  },
  "schemaVersion": "2.0.0",
  "updatedAt": "2018-03-07T01:54:14.483Z"
}