{
  "contractName": "CVIndex",
  "abi": [
    {
      "constant": false,
      "inputs": [],
      "name": "kill",
      "outputs": [],
      "payable": false,
      "stateMutability": "nonpayable",
      "type": "function"
    },
    {
      "constant": false,
      "inputs": [
        {
          "name": "cvIndex",
          "type": "uint256"
        }
      ],
      "name": "activateCV",
      "outputs": [],
      "payable": false,
      "stateMutability": "nonpayable",
      "type": "function"
    },
    {
      "constant": true,
      "inputs": [],
      "name": "getNumCVs",
      "outputs": [
        {
          "name": "",
          "type": "uint256"
        }
      ],
      "payable": false,
      "stateMutability": "view",
      "type": "function"
    },
    {
      "constant": true,
      "inputs": [
        {
          "name": "_index",
          "type": "uint256"
        }
      ],
      "name": "isCvActive",
      "outputs": [
        {
          "name": "",
          "type": "bool"
        }
      ],
      "payable": false,
      "stateMutability": "view",
      "type": "function"
    },
    {
      "constant": false,
      "inputs": [
        {
          "name": "cvAddress",
          "type": "address"
        }
      ],
      "name": "addCV",
      "outputs": [],
      "payable": false,
      "stateMutability": "nonpayable",
      "type": "function"
    },
    {
      "constant": false,
      "inputs": [
        {
          "name": "cvIndexActive",
          "type": "uint256"
        }
      ],
      "name": "deactivateCV",
      "outputs": [],
      "payable": false,
      "stateMutability": "nonpayable",
      "type": "function"
    },
    {
      "constant": true,
      "inputs": [
        {
          "name": "_index",
          "type": "uint256"
        }
      ],
      "name": "getAddressAtIndex",
      "outputs": [
        {
          "name": "",
          "type": "address"
        }
      ],
      "payable": false,
      "stateMutability": "view",
      "type": "function"
    },
    {
      "constant": true,
      "inputs": [
        {
          "name": "_index",
          "type": "uint256"
        }
      ],
      "name": "getAddressAtIndexUnconfirmed",
      "outputs": [
        {
          "name": "",
          "type": "address"
        }
      ],
      "payable": false,
      "stateMutability": "view",
      "type": "function"
    },
    {
      "anonymous": false,
      "inputs": [
        {
          "indexed": true,
          "name": "cvindex",
          "type": "uint256"
        },
        {
          "indexed": true,
          "name": "by",
          "type": "address"
        },
        {
          "indexed": false,
          "name": "cvaddress",
          "type": "address"
        },
        {
          "indexed": false,
          "name": "date",
          "type": "uint256"
        }
      ],
      "name": "ProposedCV",
      "type": "event"
    },
    {
      "anonymous": false,
      "inputs": [
        {
          "indexed": true,
          "name": "cvindex_active",
          "type": "uint256"
        },
        {
          "indexed": false,
          "name": "cvaddress",
          "type": "address"
        },
        {
          "indexed": false,
          "name": "date",
          "type": "uint256"
        }
      ],
      "name": "ActivatedCV",
      "type": "event"
    }
  ],
  "bytecode": "0x606060405260006001556000600255336000806101000a81548173ffffffffffffffffffffffffffffffffffffffff021916908373ffffffffffffffffffffffffffffffffffffffff160217905550610c298061005d6000396000f30060606040526004361061008e576000357c0100000000000000000000000000000000000000000000000000000000900463ffffffff16806341c0e1b51461009357806354e20048146100a85780635b48e7f4146100cb5780638888437f146100f457806390174a6c1461012f578063b2ad739d14610168578063c8c1fce71461018b578063da6f99fd146101ee575b600080fd5b341561009e57600080fd5b6100a6610251565b005b34156100b357600080fd5b6100c960048080359060200190919050506102e2565b005b34156100d657600080fd5b6100de610555565b6040518082815260200191505060405180910390f35b34156100ff57600080fd5b610115600480803590602001909190505061055f565b604051808215151515815260200191505060405180910390f35b341561013a57600080fd5b610166600480803573ffffffffffffffffffffffffffffffffffffffff1690602001909190505061058c565b005b341561017357600080fd5b610189600480803590602001909190505061082c565b005b341561019657600080fd5b6101ac6004808035906020019091905050610b4a565b604051808273ffffffffffffffffffffffffffffffffffffffff1673ffffffffffffffffffffffffffffffffffffffff16815260200191505060405180910390f35b34156101f957600080fd5b61020f6004808035906020019091905050610bbd565b604051808273ffffffffffffffffffffffffffffffffffffffff1673ffffffffffffffffffffffffffffffffffffffff16815260200191505060405180910390f35b6000809054906101000a900473ffffffffffffffffffffffffffffffffffffffff1673ffffffffffffffffffffffffffffffffffffffff163373ffffffffffffffffffffffffffffffffffffffff1614156102e0576000809054906101000a900473ffffffffffffffffffffffffffffffffffffffff1673ffffffffffffffffffffffffffffffffffffffff16ff5b565b6000809054906101000a900473ffffffffffffffffffffffffffffffffffffffff1673ffffffffffffffffffffffffffffffffffffffff163373ffffffffffffffffffffffffffffffffffffffff1614151561033d57600080fd5b60016003600083815260200190815260200160002060000160146101000a81548160ff021916908315150217905550600260008154809291906001019190505550600360008281526020019081526020016000206004600060025481526020019081526020016000206000820160009054906101000a900473ffffffffffffffffffffffffffffffffffffffff168160000160006101000a81548173ffffffffffffffffffffffffffffffffffffffff021916908373ffffffffffffffffffffffffffffffffffffffff1602179055506000820160149054906101000a900460ff168160000160146101000a81548160ff0219169083151502179055506001820160009054906101000a900473ffffffffffffffffffffffffffffffffffffffff168160010160006101000a81548173ffffffffffffffffffffffffffffffffffffffff021916908373ffffffffffffffffffffffffffffffffffffffff160217905550600282015481600201559050506002547f74e0fa1e41bb18756915b0e4bdd9e5dc1671a75ee07fa8233a9e237c5998b0076003600084815260200190815260200160002060000160009054906101000a900473ffffffffffffffffffffffffffffffffffffffff1642604051808373ffffffffffffffffffffffffffffffffffffffff1673ffffffffffffffffffffffffffffffffffffffff1681526020018281526020019250505060405180910390a250565b6000600254905090565b60006003600083815260200190815260200160002060000160149054906101000a900460ff169050919050565b6000600160008154809291906001019190505550819050600115158173ffffffffffffffffffffffffffffffffffffffff16637e9aef536000604051602001526040518163ffffffff167c0100000000000000000000000000000000000000000000000000000000028152600401602060405180830381600087803b151561061357600080fd5b6102c65a03f1151561062457600080fd5b50505060405180519050151514151561063c57600080fd5b6080604051908101604052808373ffffffffffffffffffffffffffffffffffffffff1681526020016000151581526020013373ffffffffffffffffffffffffffffffffffffffff1681526020014281525060036000600154815260200190815260200160002060008201518160000160006101000a81548173ffffffffffffffffffffffffffffffffffffffff021916908373ffffffffffffffffffffffffffffffffffffffff16021790555060208201518160000160146101000a81548160ff02191690831515021790555060408201518160010160006101000a81548173ffffffffffffffffffffffffffffffffffffffff021916908373ffffffffffffffffffffffffffffffffffffffff160217905550606082015181600201559050503373ffffffffffffffffffffffffffffffffffffffff166001547ff116068e52439f20b6bfac8c83fb068c1d029cdae615693df802ef93d689690d8442604051808373ffffffffffffffffffffffffffffffffffffffff1673ffffffffffffffffffffffffffffffffffffffff1681526020018281526020019250505060405180910390a3600154600560008473ffffffffffffffffffffffffffffffffffffffff1673ffffffffffffffffffffffffffffffffffffffff168152602001908152602001600020819055505050565b6000809054906101000a900473ffffffffffffffffffffffffffffffffffffffff1673ffffffffffffffffffffffffffffffffffffffff163373ffffffffffffffffffffffffffffffffffffffff1614151561088757600080fd5b60006004600083815260200190815260200160002060000160009054906101000a900473ffffffffffffffffffffffffffffffffffffffff1673ffffffffffffffffffffffffffffffffffffffff16141515610b4757600060036000600560006004600087815260200190815260200160002060000160009054906101000a900473ffffffffffffffffffffffffffffffffffffffff1673ffffffffffffffffffffffffffffffffffffffff1673ffffffffffffffffffffffffffffffffffffffff16815260200190815260200160002054815260200190815260200160002060000160146101000a81548160ff021916908315150217905550600460006002548152602001908152602001600020600460008381526020019081526020016000206000820160009054906101000a900473ffffffffffffffffffffffffffffffffffffffff168160000160006101000a81548173ffffffffffffffffffffffffffffffffffffffff021916908373ffffffffffffffffffffffffffffffffffffffff1602179055506000820160149054906101000a900460ff168160000160146101000a81548160ff0219169083151502179055506001820160009054906101000a900473ffffffffffffffffffffffffffffffffffffffff168160010160006101000a81548173ffffffffffffffffffffffffffffffffffffffff021916908373ffffffffffffffffffffffffffffffffffffffff16021790555060028201548160020155905050600460006002548152602001908152602001600020600080820160006101000a81549073ffffffffffffffffffffffffffffffffffffffff02191690556000820160146101000a81549060ff02191690556001820160006101000a81549073ffffffffffffffffffffffffffffffffffffffff021916905560028201600090555050600260008154809291906001900391905055505b50565b6000600115156004600084815260200190815260200160002060000160149054906101000a900460ff161515141515610b7f57fe5b6004600083815260200190815260200160002060000160009054906101000a900473ffffffffffffffffffffffffffffffffffffffff169050919050565b60006003600083815260200190815260200160002060000160009054906101000a900473ffffffffffffffffffffffffffffffffffffffff1690509190505600a165627a7a72305820c99105724c03099c9cf9ccef3a0d79f92f7f4a542f9f4be37dd7218dde25af070029",
  "source": "pragma solidity ^0.4.8;\n\nimport \"./CVExtender.sol\";\n\n\ncontract owned {\n    address owner;\n\n    modifier onlyowner() {\n        /**\n         * Update Exception Handling from Solidity 0.4.13!\n         * See: https://vomtom.at/exception-handling-in-solidity/\n         * If you have any questions, head over to the course Q&A!\n         **/\n        require(msg.sender == owner);\n        _;\n    }\n\n    function owned() public {\n        owner = msg.sender;\n    }\n}\n\ncontract mortal is owned {\n    function kill() public {\n        if (msg.sender == owner)\n        selfdestruct(owner);\n    }\n}\n\ncontract CVIndex is mortal {\n\n    uint i_cvindex = 0;\n\n    uint i_cvindex_active = 0;\n\n    struct CV {\n    address _address;\n    bool _active;\n    address _added_by;\n    uint _created_at;\n    }\n\n    mapping(uint => CV) map_cvs;\n    mapping(uint => CV) map_cvs_active;\n    mapping(address => uint) addressCVPosition;\n\n    event ProposedCV(uint indexed cvindex, address indexed by, address cvaddress, uint date);\n    event ActivatedCV(uint indexed cvindex_active, address cvaddress, uint date);\n\n    function addCV(address cvAddress) public {\n        i_cvindex++;\n        CVExtender cv_dings = CVExtender(cvAddress);\n\n        /**\n         * UPDATED to new Exception Handling.\n         * See https://vomtom.at/exception-handling-in-solidity/\n         **/\n        require(cv_dings.elementsAreSet() == true);\n\n        map_cvs[i_cvindex] = CV(cvAddress, false, msg.sender, now);\n        ProposedCV(i_cvindex, msg.sender, cvAddress, now);\n        addressCVPosition[cvAddress] = i_cvindex;\n\n    }\n\n    function activateCV(uint cvIndex) public onlyowner {\n        map_cvs[cvIndex]._active = true;\n        i_cvindex_active++;\n        map_cvs_active[i_cvindex_active] = map_cvs[cvIndex];\n        ActivatedCV(i_cvindex_active, map_cvs[cvIndex]._address, now);\n    }\n\n    function deactivateCV(uint cvIndexActive) public onlyowner {\n        if(address(map_cvs_active[cvIndexActive]._address) != 0x0) {\n            map_cvs[addressCVPosition[map_cvs_active[cvIndexActive]._address]]._active = false;\n            //move the last element over the one here\n            map_cvs_active[cvIndexActive] = map_cvs_active[i_cvindex_active];\n\n            //delete the last element\n            delete map_cvs_active[i_cvindex_active];\n            //make the whole index one element shorter\n            i_cvindex_active--;\n        }\n    }\n\n    function getNumCVs() public view returns (uint) {\n        return i_cvindex_active;\n    }\n\n    function getAddressAtIndex(uint _index) public view returns (address) {\n        assert(map_cvs_active[_index]._active == true);\n        return (map_cvs_active[_index]._address);\n\n    }\n\n    function getAddressAtIndexUnconfirmed(uint _index) public view returns (address) {\n        return (map_cvs[_index]._address);\n    }\n\n    function isCvActive(uint _index) public view returns (bool) {\n        return (map_cvs[_index]._active);\n    }\n\n}\n",
  "sourcePath": "C:\\Users\\crypto\\Projects\\blockchain-cv\\contracts\\CVIndex.sol",
  "compiler": {
    "name": "solc",
    "version": "0.4.19+commit.c4cbbb05.Emscripten.clang"
  },
  "schemaVersion": "1.0.1",
  "updatedAt": "2018-03-02T02:37:06.941Z"
}