{
  "contractName": "MyExampleContract",
  "abi": [
    {
      "constant": true,
      "inputs": [],
      "name": "elementsAreSet",
      "outputs": [
        {
          "name": "",
          "type": "bool"
        }
      ],
      "payable": false,
      "stateMutability": "view",
      "type": "function"
    },
    {
      "constant": true,
      "inputs": [],
      "name": "getAddress",
      "outputs": [
        {
          "name": "",
          "type": "string"
        }
      ],
      "payable": false,
      "stateMutability": "view",
      "type": "function"
    },
    {
      "constant": true,
      "inputs": [],
      "name": "getDescription",
      "outputs": [
        {
          "name": "",
          "type": "string"
        }
      ],
      "payable": false,
      "stateMutability": "view",
      "type": "function"
    },
    {
      "constant": true,
      "inputs": [],
      "name": "getTitle",
      "outputs": [
        {
          "name": "",
          "type": "string"
        }
      ],
      "payable": false,
      "stateMutability": "view",
      "type": "function"
    },
    {
      "constant": true,
      "inputs": [],
      "name": "getAuthor",
      "outputs": [
        {
          "name": "",
          "type": "string"
        },
        {
          "name": "",
          "type": "string"
        }
      ],
      "payable": false,
      "stateMutability": "view",
      "type": "function"
    }
  ],
  "bytecode": "0x6060604052341561000f57600080fd5b6105988061001e6000396000f30060606040526004361061006d576000357c0100000000000000000000000000000000000000000000000000000000900463ffffffff1680631a0925411461007257806338cc4831146101005780637e9aef531461018e578063a5faa125146101bb578063ff3c1a8f146102b5575b600080fd5b341561007d57600080fd5b610085610343565b6040518080602001828103825283818151815260200191508051906020019080838360005b838110156100c55780820151818401526020810190506100aa565b50505050905090810190601f1680156100f25780820380516001836020036101000a031916815260200191505b509250505060405180910390f35b341561010b57600080fd5b610113610386565b6040518080602001828103825283818151815260200191508051906020019080838360005b83811015610153578082015181840152602081019050610138565b50505050905090810190601f1680156101805780820380516001836020036101000a031916815260200191505b509250505060405180910390f35b341561019957600080fd5b6101a16103c9565b604051808215151515815260200191505060405180910390f35b34156101c657600080fd5b6101ce61047d565b604051808060200180602001838103835285818151815260200191508051906020019080838360005b838110156102125780820151818401526020810190506101f7565b50505050905090810190601f16801561023f5780820380516001836020036101000a031916815260200191505b50838103825284818151815260200191508051906020019080838360005b8381101561027857808201518184015260208101905061025d565b50505050905090810190601f1680156102a55780820380516001836020036101000a031916815260200191505b5094505050505060405180910390f35b34156102c057600080fd5b6102c8610501565b6040518080602001828103825283818151815260200191508051906020019080838360005b838110156103085780820151818401526020810190506102ed565b50505050905090810190601f1680156103355780820380516001836020036101000a031916815260200191505b509250505060405180910390f35b61034b610544565b6040805190810160405280601281526020017f5468697320697320616e206578616d706c650000000000000000000000000000815250905090565b61038e610544565b6040805190810160405280601681526020017f687474703a2f2f7777772e6578616d706c652e6f726700000000000000000000815250905090565b60006103d3610558565b6103db610544565b6103e3610544565b6103eb610343565b92506000835114156104005760009350610477565b610408610501565b925060008351141561041d5760009350610477565b61042561047d565b9150915081925060008351141561043f5760009350610477565b8092506000835114156104555760009350610477565b61045d610386565b92506000835114156104725760009350610477565b600193505b50505090565b610485610544565b61048d610544565b6040805190810160405280600681526020017f54686f6d617300000000000000000000000000000000000000000000000000008152506040805190810160405280601281526020017f74686f6d6173406578616d706c652e6f72670000000000000000000000000000815250915091509091565b610509610544565b6040805190810160405280600d81526020017f53696d706c654578616d706c6500000000000000000000000000000000000000815250905090565b602060405190810160405280600081525090565b6020604051908101604052806000815250905600a165627a7a72305820910ea22315919d025a8c8f8c01dedc187973d74ffbf6063ffc375b6539fdde970029",
  "source": "pragma solidity ^0.4.15;\n\nimport \"./CVExtender.sol\";\n\ncontract MyExampleContract is CVExtender {\n    \n    /**\n     * Your functions go here\n     *\n     * */\n\n    //function myFunction1() public {}\n    //function myFunction2() public {}\n\n\n    /**\n     * Below is for our CV!\n     * */\n    function getAddress() public constant returns(string) {\n        return \"http://www.example.org\";\n    }\n\n    function getDescription() public constant returns(string) {\n        return \"This is an example\";\n    }\n    function getTitle() public constant returns(string) {\n        return \"SimpleExample\";\n    }\n    function getAuthor() public constant returns(string, string) {\n        return (\"Thomas\", \"thomas@example.org\");\n    }\n}",
  "sourcePath": "C:\\Users\\crypto\\Projects\\blockchain-cv\\contracts\\MyExampleContract.sol",
  "compiler": {
    "name": "solc",
    "version": "0.4.19+commit.c4cbbb05.Emscripten.clang"
  },
  "schemaVersion": "2.0.0",
  "updatedAt": "2018-03-05T17:20:29.729Z"
}